:100000000C9434000C94EA000C9451000C945100B0
:100010000C9451000C9451000C9451000C9451001C
:100020000C9451000C9451000C9451000C948B00D2
:100030000C9451000C9451000C9451000C945100FC
:100040000C9451000C9451000C9451000C945100EC
:100050000C9451000C9451000C9451000C945100DC
:100060000C9451000C94510011241FBECFEFD8E026
:10007000DEBFCDBF11E0A0E0B1E0EAEEF4E002C0E7
:1000800005900D92A832B107D9F721E0A8E2B1E0BE
:1000900001C01D92AF32B207E1F70E943E010C94FD
:1000A00073020C940000ECE7F0E0808180648083B0
:1000B000808181608083EAE7F0E0808186608083D0
:1000C0008081806280838081886080830895EAE7F0
:1000D000F0E08081806880838081806480830895DF
:1000E000EAE7F0E080818F77808308950E9418010D
:1000F0000E940101259A83B7817F83BF7894089578
:1001000081FF05C02A9A80FF04C02B9A08952A987F
:10011000FACF2B9808951F920F920FB60F921124C9
:100120002F933F934F935F936F937F938F939F93FF
:10013000AF93BF93EF93FF9380912A01813009F52C
:10014000809128019091290180932C0183E00E94E5
:10015000800082E080932A011092290110922801E8
:10016000FF91EF91BF91AF919F918F917F916F918F
:100170005F914F913F912F910F900FBE0F901F9065
:10018000189580912A01823059F48091280190912C
:10019000290180932D0181E00E94800083E0DACF65
:1001A00080912A01833079F480912801909129016E
:1001B00080932E0180E00E94800081E080932A01DC
:1001C00080932B01C9CF81E080932A0180E00E94B7
:1001D0008000C2CF1F920F920FB60F9211248F93FF
:1001E0009F93809128019091290101969093290174
:1001F000809328019F918F910F900FBE0F901F90B9
:100200001895E1E8F0E080818860808380818160DA
:100210008083808182608083EFE6F0E0808182606D
:10022000808380E493E09093890080938800089510
:1002300081E08093C4001092C500E0ECF0E0808182
:1002400082608083E1ECF0E080818861808380813E
:100250008068808308959091C00095FFFCCF8093C3
:10026000C6000895CF93DF93EC018991811103C0FB
:10027000DF91CF9108950E942B01F7CF0E94760065
:1002800080912B018823E1F3C0912C01A0912C01D6
:10029000E0912D0140912D0120912E0180912E01A0
:1002A000C456DD0BA456BB0BCA9FB001CB9F700D8B
:1002B000DA9F700D1124E456FF0B4456550BE49F52
:1002C000D001E59FB00DF49FB00D11246A0F7B1F84
:1002D0002456330B8456990B289FA001299F500D5B
:1002E000389F500D1124640F751F072E000C880BCA
:1002F000990B0E9494010E94F9012DEC3CEC4CEC0E
:100300005DE30E948D0118162CF080E091E00E94C0
:100310003201B6CF80E191E0FACF0E94CF0108F41C
:1003200081E00895E89409C097FB3EF4909580958C
:10033000709561957F4F8F4F9F4F9923A9F0F92FAB
:1003400096E9BB279395F695879577956795B79529
:10035000F111F8CFFAF4BB0F11F460FF1BC06F5F0F
:100360007F4F8F4F9F4F16C0882311F096E911C021
:10037000772321F09EE8872F762F05C0662371F042
:1003800096E8862F70E060E02AF09A95660F771F56
:10039000881FDAF7880F9695879597F90895990F32
:1003A0000008550FAA0BE0E8FEEF16161706E8073F
:1003B000F907C0F012161306E407F50798F0621B60
:1003C000730B840B950B39F40A2661F0232B242B35
:1003D000252B21F408950A2609F4A140A6958FEF54
:1003E000811D811D089519F416F40C9447020C9494
:1003F00039020E945902B8F39923C9F3B6F39F5703
:10040000550B87FF0E944A020024A0E640EA9001B3
:1004100080585695979528F4805C660F771F881F43
:1004200020F026173707480730F4621B730B840B44
:10043000202931294A2BA695179407942025312588
:100440004A2758F7660F771F881F20F026173707AF
:10045000480730F4620B730B840B200D311D411DD6
:10046000A09581F7B901842F9158880F96958795AB
:1004700008959F3F31F0915020F4879577956795C7
:10048000B795880F911D9695879597F908959FEFD9
:1004900080EC089591505040660F771F881FD2F767
:1004A000089557FD9058440F551F59F05F3F71F064
:1004B0004795880F97FB991F61F09F3F79F08795CB
:1004C0000895121613061406551FF2CF4695F1DF54
:1004D00008C0161617061806991FF1CF86957105E4
:0A04E000610508940895F894FFCF19
:1004EA00436F6C6F7273206D61746368210D0A002B
:1004FA00436F6C6F727320646F206E6F74206D612E
:08050A00746368210D0A000072
:00000001FF
